:020000040800F2
:10000000008001201D450008B1170008B317000843
:10001000B5170008B7170008B9170008000000005E
:10002000000000000000000000000000BB170008F6
:10003000BD17000800000000BF170008C117000826
:100040006D4500086D4500086D4500086D450008C8
:100050006D4500086D4500086D4500086D450008B8
:100060006D4500086D4500086D4500086D450008A8
:100070006D450008C9170008D91700086D4500082C
:100080006D4500086D4500086D4500086D45000888
:100090006D4500086D4500086D4500086D45000878
:1000A0006D4500086D4500086D4500086D45000868
:1000B0006D4500086D4500086D4500086D45000858
:1000C0006D4500086D4500086D4500086D45000848
:1000D0006D450008E91700086D4500086D450008EA
:1000E0006D4500086D4500086D4500086D45000828
:1000F0006D4500086D4500086D4500086D45000818
:100100006D4500086D4500086D4500086D45000807
:100110006D4500086D4500086D4500086D450008F7
:100120006D4500086D4500086D4500086D450008E7
:100130006D4500086D4500086D4500086D450008D7
:100140006D4500086D4500086D4500086D450008C7
:100150006D4500086D4500086D4500086D450008B7
:100160006D4500086D4500086D4500086D450008A7
:100170006D4500086D4500086D4500080000000051
:080180006D4500086D45000803
:1001880010B5054C237833B9044B13B10448AFF3C9
:1001980000800123237010BD3046002000000000BD
:1001A800C845000808B5034B1BB103490348AFF322
:1001B800008008BD0000000034460020C845000843
:1001C80081F0004102E000BF83F0004330B54FEA00
:1001D80041044FEA430594EA050F08BF90EA020F6D
:1001E8001FBF54EA000C55EA020C7FEA645C7FEA00
:1001F800655C00F0E2804FEA5454D4EB5555B8BF23
:100208006D420CDD2C4480EA020281EA030382EA93
:10021800000083EA010180EA020281EA0303362D25
:1002280088BF30BD11F0004F4FEA01314FF4801CF8
:100238004CEA113102D0404261EB410113F0004F0A
:100248004FEA03334CEA133302D0524263EB4303C1
:1002580094EA050F00F0A780A4F10104D5F1200E5F
:100268000DDB02FA0EFC22FA05F2801841F10001BA
:1002780003FA0EF2801843FA05F359410EE0A5F18E
:1002880020050EF1200E012A03FA0EFC28BF4CF0BF
:10029800020C43FA05F3C01851EBE37101F0004575
:1002A80007D54FF0000EDCF1000C7EEB00006EEB82
:1002B8000101B1F5801F1BD3B1F5001F0CD349080C
:1002C8005FEA30004FEA3C0C04F101044FEA445263
:1002D80012F5800F80F09A80BCF1004F08BF5FEAEA
:1002E800500C50F1000041EB045141EA050130BDCA
:1002F8005FEA4C0C404141EB010111F4801FA4F16D
:100308000104E9D191F0000F04BF01460020B1FAC1
:1003180081F308BF2033A3F10B03B3F120020CDAF9
:100328000C3208DD02F1140CC2F10C0201FA0CF0D7
:1003380021FA02F10CE002F11402D8BFC2F1200C3C
:1003480001FA02F120FA0CFCDCBF41EA0C019040F2
:10035800E41AA2BF01EB0451294330BD6FEA04043B
:100368001F3C1CDA0C340EDC04F11404C4F1200226
:1003780020FA04F001FA02F340EA030021FA04F338
:1003880045EA030130BDC4F10C04C4F1200220FA8F
:1003980002F001FA04F340EA0300294630BD21FACD
:1003A80004F0294630BD94F0000F83F4801306BF93
:1003B80081F480110134013D4EE77FEA645C18BF87
:1003C8007FEA655C29D094EA050F08BF90EA020F1E
:1003D80005D054EA000C04BF1946104630BD91EA16
:1003E800030F1EBF0021002030BD5FEA545C05D119
:1003F8004000494128BF41F0004130BD14F5800458
:100408003CBF01F5801130BD01F0004545F0FE41CB
:1004180041F470014FF0000030BD7FEA645C1ABF00
:10042800194610467FEA655C1CBF0B46024650EA37
:10043800013406BF52EA033591EA030F41F4002163
:1004480030BD00BF90F0000F04BF0021704730B5E9
:100458004FF4806404F132044FF000054FF00001BE
:1004680050E700BF90F0000F04BF0021704730B57F
:100478004FF4806404F1320410F0004548BF404254
:100488004FF000013EE700BF42004FEAE2014FEAA9
:1004980031014FEA02701FBF12F07F4393F07F4F84
:1004A80081F06051704732F07F4208BF704793F087
:1004B8007F4F04BF41F40021704730B54FF460749A
:1004C80001F0004521F000411CE700BF50EA01029D
:1004D80008BF704730B54FF000050AE050EA010246
:1004E80008BF704730B511F0004502D5404261EBB6
:1004F80041014FF4806404F132045FEA915C3FF4F7
:10050800D8AE4FF003025FEADC0C18BF03325FEA93
:10051800DC0C18BF033202EBDC02C2F1200300FA44
:1005280003FC20FA02F001FA03FE40EA0E0021FA69
:1005380002F11444BDE600BF70B54FF0FF0C4CF457
:10054800E06C1CEA11541DBF1CEA135594EA0C0F09
:1005580095EA0C0F00F0DEF82C4481EA030621EA44
:100568004C5123EA4C5350EA013518BF52EA03357F
:1005780041F4801143F4801338D0A0FB02CE4FF031
:100588000005E1FB02E506F00042E0FB03E54FF061
:100598000006E1FB03569CF0000F18BF4EF0010E59
:1005A800A4F1FF04B6F5007F64F5407404D25FEA55
:1005B8004E0E6D4146EB060642EAC62141EA555108
:1005C8004FEAC52040EA5E504FEACE2EB4F1FD0C4A
:1005D80088BFBCF5E06F1ED8BEF1004F08BF5FEAC8
:1005E800500E50F1000041EB045170BD06F000467A
:1005F80046EA010140EA020081EA0301B4EB5C0427
:10060800C2BFD4EB0C0541EA045170BD41F480111E
:100618004FF0000E013C00F3AB8014F1360FDEBF43
:10062800002001F0004170BDC4F10004203C35DA1F
:100638000C341BDC04F11404C4F1200500FA05F3A2
:1006480020FA04F001FA05F240EA020001F0004243
:1006580021F0004110EBD37021FA04F642EB0601B9
:100668005EEA430E08BF20EAD37070BDC4F10C04E3
:10067800C4F1200500FA04F320FA05F001FA04F2A7
:1006880040EA020001F0004110EBD37041F1000193
:100698005EEA430E08BF20EAD37070BDC4F120059E
:1006A80000FA05F24EEA020E20FA04F301FA05F206
:1006B80043EA020321FA04F001F0004121FA04F2AE
:1006C80020EA020000EBD3705EEA430E08BF20EA7E
:1006D800D37070BD94F0000F0FD101F000464000B8
:1006E80041EB010111F4801F08BF013CF7D041EA3A
:1006F800060195F0000F18BF704703F0004652003E
:1007080043EB030313F4801F08BF013DF7D043EA0E
:100718000603704794EA0C0F0CEA135518BF95EAC4
:100728000C0F0CD050EA410618BF52EA4306D1D14B
:1007380081EA030101F000414FF0000070BD50EA6A
:10074800410606BF1046194652EA430619D094EAF4
:100758000C0F02D150EA013613D195EA0C0F05D1DE
:1007680052EA03361CBF104619460AD181EA030132
:1007780001F0004141F0FE4141F470014FF00000EA
:1007880070BD41F0FE4141F4780170BD70B54FF085
:10079800FF0C4CF4E06C1CEA11541DBF1CEA135505
:1007A80094EA0C0F95EA0C0F00F0A7F8A4EB0504E7
:1007B80081EA030E52EA03354FEA013100F08880DE
:1007C8004FEA03334FF0805545EA131343EA1263A7
:1007D8004FEA022245EA111545EA10654FEA00265C
:1007E8000EF000419D4208BF964244F1FD0404F515
:1007F800407402D25B084FEA3202B61A65EB030571
:100808005B084FEA32024FF480104FF4002CB6EB2D
:10081800020E75EB030E22BFB61A754640EA0C00AD
:100828005B084FEA3202B6EB020E75EB030E22BFED
:10083800B61A754640EA5C005B084FEA3202B6EB2E
:10084800020E75EB030E22BFB61A754640EA9C00ED
:100858005B084FEA3202B6EB020E75EB030E22BFBD
:10086800B61A754640EADC0055EA060E18D04FEA7B
:10087800051545EA16754FEA06164FEAC30343EA1B
:1008880052734FEAC2025FEA1C1CC0D111F4801FE8
:100898000BD141EA00014FF000004FF0004CB6E7E1
:1008A80011F4801F04BF01430020B4F1FD0C88BF80
:1008B800BCF5E06F3FF6AFAEB5EB030C04BFB6EB8B
:1008C800020C5FEA500C50F1000041EB045170BD7E
:1008D8000EF0004E4EEA113114EB5C04C2BFD4EBAB
:1008E8000C0541EA045170BD41F480114FF0000E2F
:1008F800013C90E645EA060E8DE60CEA135594EAAB
:100908000C0F08BF95EA0C0F3FF43BAF94EA0C0FAD
:100918000AD150EA01347FF434AF95EA0C0F7FF422
:1009280025AF104619462CE795EA0C0F06D152EA76
:1009380003353FF4FDAE1046194622E750EA41065A
:1009480018BF52EA43067FF4C5AE50EA41047FF46B
:100958000DAF52EA43057FF4EBAE12E74FEA4102CE
:1009680012F5001215D211D56FF47873B3EB6252F9
:1009780012D94FEAC12343F0004343EA505311F020
:10098800004F23FA02F018BF404270474FF00000B2
:10099800704750EA013005D111F0004008BF6FF0F0
:1009A800004070474FF00000704700BF53B94AB984
:1009B800002908BF00281CBF4FF0FF314FF0FF305F
:1009C80000F072B9ADF1080C6DE904CE00F006F83C
:1009D800DDF804E0DDE9022304B070472DE9F047B3
:1009E800089E04468846002B4BD18A42154667D993
:1009F800B2FA82F24AB1C2F1200701FA02F320FAF0
:100A080007F7954047EA030894404FEA154E230C30
:100A1800B8FBFEF71FFA85FC0EFB178843EA08436C
:100A280007FB0CF1994209D9EB1807F1FF3080F068
:100A38001B81994240F21881023F2B445B1AA4B2F1
:100A4800B3FBFEF00EFB103344EA034400FB0CFC3E
:100A5800A44509D92C1900F1FF3380F00781A4457A
:100A680040F2048102382C4440EA0740A4EB0C040D
:100A780000271EB1D4400023C6E900433946BDE82B
:100A8800F0878B4209D9002E00F0EB800027C6E9D9
:100A9800000138463946BDE8F087B3FA83F7002FDE
:100AA80047D18B4202D3824200F2FA80841A61EB6A
:100AB800030301209846002EE0D0C6E90048DDE790
:100AC80002B9FFDEB2FA82F2002A40F08F80491B99
:100AD8004FEA154E1FFA85F80127B1FBFEFC230CDF
:100AE8000EFB1C1143EA014308FB0CF1994207D99C
:100AF800EB180CF1FF3002D2994200F2CD80844607
:100B0800591AA3B2B1FBFEF00EFB101443EA0444D9
:100B180008FB00F8A04507D92C1900F1FF3302D2D1
:100B2800A04500F2B6801846A4EB080440EA0C4041
:100B38009FE7C7F1200CBB4022FA0CFE4EEA030ED9
:100B480001FA07F420FA0CF521FA0CF34FEA1E48D3
:100B58002543B3FBF8F92C0C08FB19331FFA8EFA5E
:100B680044EA034309FB0AF49C4202FA07F200FA3A
:100B780007F10BD91EEB030309F1FF3080F08780E2
:100B88009C4240F28480A9F1020973441B1BADB258
:100B9800B3FBF8F008FB103345EA034400FB0AFAFC
:100BA800A24508D91EEB040400F1FF336BD2A2451D
:100BB80069D90238744440EA0940A0FB0289A4EBD1
:100BC8000A044C45C2464B4654D351D0002E69D036
:100BD800B1EB0A0564EB030404FA0CFCFD40FC408D
:100BE8004CEA0505C6E90054002747E7C2F120038F
:100BF80020FA03F7954001FA02F021FA03F34FEACD
:100C0800154E3843010CB3FBFEF71FFA85F80EFBAF
:100C1800173341EA034107FB08F38B4204FA02F455
:100C280007D9691807F1FF3C2FD28B422DD9023F13
:100C38002944CB1A81B2B3FBFEF00EFB103341EA14
:100C4800034100FB08F38B4207D9691800F1FF3C08
:100C580017D28B4215D902382944C91A40EA0747E6
:100C68003BE73746304609E70746E7E61846FBE61E
:100C78004145ABD2B8EB020A69EB0E0201381346C4
:100C8800A4E76046E9E7184695E76746D1E7814655
:100C98007CE702382C4447E7ACF1020C2B442FE7E1
:100CA800384608E73746E9E6704700BF00B58BB01D
:100CB800002307930893099303F1804303F5043352
:100CC800DA6C42F00402DA64DA6C02F0040201928F
:100CD800019ADA6C42F08002DA64DA6C02F080027F
:100CE8000292029ADA6C42F00102DA64DA6C02F0DB
:100CF80001020392039ADA6C42F00202DA64DB6CB6
:100D080003F002030493049B4FF400530593044B30
:100D1800069305A9034801F04DF90BB05DF804FBF3
:100D2800000021100008004800B583B00E4B9A6CF3
:100D380042F001029A649B6C03F001030193019B4A
:100D4800002211460D2000F0EBFD0D2000F01CFEE6
:100D5800002211460E2000F0E3FD0E2000F014FEE4
:100D680003B05DF804FB00BF001002400000000063
:100D780010B5CF4C4FF6FF7301222146CD4803F042
:100D8800F4FA2378732B28D0312B45D0322B6BD033
:100D9800332B00F09280342B00F0B680352B00F016
:100DA800DD80362B00F00581692B00F03181642B42
:100DB80000F04A81722B00F063816F2B00F08A816A
:100DC800702B00F08D81742B00F08F81712B11D165
:100DD800B94BBA4AC3F8342F0CE0B94B1B687BB146
:100DE8000021B74B1960B74C204602F069FD204638
:100DF80002F062FB0122AE49AE4802F0CFFE10BD00
:100E0800AF4B01221A60AF4C0021204602F00EFEC3
:100E1800204602F093FBEDE7AB4B191D1A4642F84A
:100E2800C81BC3F8C420C3F88811C3F88C21D3F8B1
:100E38009421C3F89021A24A00211160D3F8984167
:100E4800C3F89C41D3F8A001C3F8A401C3F8A84192
:100E5800C3F8AC01516091609A4C204602F030FD15
:100E6800204602F029FBC5E7974B03F5D8711960B6
:100E780003F59962C3F8C420C3F88811C3F88C211C
:100E8800D3F8E027C3F890218D4A00211160D3F8E8
:100E9800E447C3F89C41D3F8E807C3F8A401C3F8B2
:100EA800A841C3F8AC0151609160864C204602F01D
:100EB80007FD204602F000FB9CE7834B03F2EC7130
:100EC800196003F6AC42C3F8C420C3F88811C3F80C
:100ED8008C217E48426FC3F89021794A0021116025
:100EE800846FC3F89C41C06FC3F8A401C3F8A8413C
:100EF800C3F8AC0151609160724C204602F0E0FCEE
:100F0800204602F0D9FA75E76F4B704A02F180006B
:100F1800186002F5AC61C3F8C410C3F88801C3F8BF
:100F28008C11D2F8401AC3F890116548002101606D
:100F3800D2F8444AC3F89C41D2F8482AC3F8A421FD
:100F4800C3F8A841C3F8AC21416081605D4C2046DC
:100F580002F0B6FC204602F0AFFA4BE75A4B5B4A68
:100F680002F64C21196002F62C72C3F8C420C3F8AB
:100F78008811C3F88C215648D0F81423C3F890215F
:100F88004F4A00211160D0F81843C3F89C41D0F8AB
:100F98001C03C3F8A40151609160C3F8A841C3F8C9
:100FA800AC01484C204602F08BFC204602F084FA43
:100FB80020E7454B464A02F54871196002F526625A
:100FC800C3F8C4203C4A02F1A801C3F8881102F50D
:100FD800FD61C3F88C11D2F8281FC3F89011384866
:100FE80000210160D2F82C4FC3F89C41D2F8302F71
:100FF800C3F8A421C3F8A841C3F8AC2141608160BB
:10100800304C204602F05CFC204602F055FAF1E62E
:101018002D4CD4F89C01FFF725FA1FA3D3E9002330
:10102800FFF78AFAFFF79AFCC4F89C01D4F8A401E8
:10103800FFF718FA18A3D3E90023FFF77DFAFFF7A3
:101048008DFCC4F8A401D5E61F4CD4F89C01FFF729
:1010580009FA13A3D3E90023FFF76EFAFFF77EFC22
:10106800C4F89C01D4F8A401FFF7FCF90EA3D3E956
:101078000023FFF761FAFFF771FCC4F8A401B9E691
:10108800114BD3F8A821C3F89C21D3F8AC21C3F89D
:10109800A421AFE6AFF30080CDCCCCCCCCCCEC3FD8
:1010A8009A9999999999F13F666666666666F23FDC
:1010B8001448002000470020E83200202045002086
:1010C8004C4600205846002000000020F810002060
:1010D800F0210020074B03F63872C3F8342F89E655
:1010E800044B054AC3F8342F84E6024B034AC3F87D
:1010F800342F7FE6E83200202043002020440020DF
:1011080072B6FEE700B58BB02422002101A803F0D7
:101118004FFA1348134B036000F05AFCC8B9002279
:101128000192042302930392049205920DEB0301AA
:101138000B4800F02DFD70B914230293002304938B
:10114800102201A9064800F023FD30B90BB05DF864
:1011580004FBFFF7D5FFFFF7D3FFFFF7D1FF00BF71
:10116800A44600200074004008B50B480B4B0360F0
:101178004FF4E133436000238360C36003610C22B2
:1011880042618361C3610362436203F090F900B96D
:1011980008BDFFF7B5FF00BF184800200044004015
:1011A80000B58BB00023079308930993009301932C
:1011B800029303930493059306931748174A026012
:1011C80040F21F3242608360C722C26003618023FD
:1011D800836102F05AFAC8B900230793099307A953
:1011E8000D4802F07FFC98B9602300930B2301930C
:1011F8000022029204926946074802F0BBFA48B9F5
:10120800054800F045FA0BB05DF804FBFFF778FFDE
:10121800FFF776FFFFF774FF5846002000080040EC
:1012280008B50D480D4B03604FF416534360002377
:101238008360C36003610C2242618361C3610362FE
:10124800436203F034F928B901220549024802F043
:10125800A5FC08BDFFF754FF0047002000380140F7
:101268001448002000B585B0002201920292039232
:101278000D4B0E4919605A609A60D86080229A61B5
:10128800184602F0D3F958B9202301930023039399
:1012980001A9054802F026FC20B905B05DF804FB59
:1012A800FFF72EFFFFF72CFF8047002000100040BB
:1012B80000B585B000220192029203920D4B0E49AF
:1012C80019605A609A60D86080229A61184602F0C4
:1012D800ADF958B9202301930023039301A90548C8
:1012E80002F000FC20B905B05DF804FBFFF708FF29
:1012F800FFF706FF984800200014004000B5B9B079
:101308002422002128A803F053F9002122912391D7
:101318002491259126918822684603F049F90223F1
:1013280027934FF480722A9210222B923193329392
:10133800012233920A223492072235923693379348
:1013480027A801F00DF8E8B90F232293032323936C
:101358000023249325932693042122A801F01CFB43
:1013680090B90323009300230E930F93684601F06E
:1013780047FD58B94FF4007000F008FF40B939B084
:101388005DF804FBFFF7BCFEFFF7BAFEFFF7B8FEF7
:10139800FFF7B6FE2DE9F04383B000F073FAFFF7CC
:1013A800ADFFFFF783FCFFF7BFFCFFF7ABFE42F290
:1013B8005350FFF757FFFFF7D7FE42F25350FFF79E
:1013C80077FFFFF7EDFEFFF72BFF464802F0B6F870
:1013D800454802F0B3F8454C0021204602F070FA67
:1013E800204602F069F878E00133414AD2F89C219E
:1013F8009A42F9DC3F4B9A683D4BD3F8C43053F816
:101408002230012B0CD03B4B9A68394BD3F88C31E6
:1014180053F82230012B08D1334802F08FF804E04A
:10142800304802F08BF8EEE70134314BD3F8A431A1
:10143800A342F9DC2F4A9368013393602D4B9B68D4
:101448002B4AD2F89021934247DA2A4A0021516068
:101458001468002C38D1DFF89890D9F8002052F899
:101468002330DFF89C8058F82300FFF7FBFE1D4867
:1014780002F022F8204D0021284600F0BBFA1F4F49
:10148800002600968023D7F8342F3146284600F0EE
:10149800E1FA184B9A68D9F8883153F8223058F88D
:1014A8002300FFF705FF104802F006F81021284630
:1014B80000F0A0FAD7F8342F009680231021284690
:1014C80000F0C8FA234690E7064802F037F80648C5
:1014D80002F034F8074B9A685A60064B5A689A60CB
:1014E800ACE700BF804700209848002058460020FD
:1014F800000000204C460020A4460020E8320020CE
:10150800E045000882B00A4B1A6E42F001021A66E2
:101518001A6E02F001020092009A9A6D42F080520F
:101528009A659B6D03F080530193019B02B070474D
:101538000010024010B588B000230393049305936C
:101548000693079302682F4B9A4201D008B010BD4A
:10155800044603F5CE339A6D42F000529A659A6DAF
:1015680002F000520192019ADA6C42F00102DA6448
:10157800DB6C03F001030293029B302303930323E4
:10158800049303A94FF0904000F014FD1E481F4B30
:10159800036006234360102383600023C360802216
:1015A80002614FF4807242614FF4806282612022AE
:1015B800C261036200F0BCFBE8B9134BA3609C62F4
:1015C8001348144B036005234360102383600023F2
:1015D800C360802202614FF4807242614FF48062DE
:1015E80082612022C261036200F0A2FB30B9084B7D
:1015F800E3609C62AAE7FFF783FDDEE7FFF780FD63
:10160800F5E700BF00740040B846002030000240F3
:10161800CC470020440002400268094B9A4200D09F
:10162800704782B003F502339A6D42F004029A655E
:101638009B6D03F004030193019B02B0704700BF48
:101648000008004082B003680E4A934204D00E4A54
:1016580093420CD002B070470C4B9A6D42F01002C6
:101668009A659B6D03F010030093009BF2E7074B0C
:101678009A6D42F020029A659B6D03F02003019356
:10168800019BE7E7001000400014004000100240F2
:1016980000B587B000230193029303930493059345
:1016A80002680D4B9A4202D007B05DF804FB03F5BF
:1016B8000233DA6C42F00202DA64DB6C03F00203F4
:1016C8000093009B4023019302230293059301A9F1
:1016D800024800F06FFCE7E70008004000040048FB
:1016E80000B58BB0002305930693079308930993DD
:1016F80003682A4A934205D0294A93422CD00BB05A
:101708005DF804FB274B1A6E42F480421A661A6E83
:1017180002F480420192019ADA6C42F00102DA6422
:10172800DB6C03F001030293029B4FF4C063059343
:1017380002230693032308930723099305A94FF06F
:10174800904000F037FC00221146252000F0E8F810
:10175800252000F019F9D2E7124B9A6D42F40032B5
:101768009A659A6D02F400320392039ADA6C42F099
:101778000102DA64DB6C03F001030493049B0C237D
:10178800059302230693032308930723099305A9C6
:101798004FF0904000F00EFCB1E700BF0038014068
:1017A8000044004000100240FEE7FEE7FEE7FEE7C7
:1017B800FEE770477047704708B500F079F808BD34
:1017C80008B5024800F093FB08BD00BFB8460020EA
:1017D80008B5024800F08BFB08BD00BFCC470020CD
:1017E80008B5024802F0B4FA08BD00BF004700205F
:1017F8000F49D1F8883043F47003C1F888300D4B95
:101808001A6842F001021A60002098601A6822F0F3
:10181800A85222F410221A604FF48052DA601A6833
:1018280022F480221A6098614FF000638B60704741
:1018380000ED00E000100240104B1B780BB90120AE
:10184800704710B504464FF47A70B0FBF3F30C4AB6
:101858001068B0FBF3F000F0A5F868B90F2C01D9B7
:1018680001200AE0002221464FF0FF3000F058F82E
:10187800024B5C60002000E0012010BD24460020DF
:101888002046002010B5094A136843F4807313609A
:10189800032000F033F80020FFF7CEFF10B1012439
:1018A800204610BD0446FFF72DFEF9E70020024050
:1018B800034B1B78034A11680B441360704700BF41
:1018C80024460020E4480020014B1868704700BFF8
:1018D800E448002038B50446FFF7F6FF0546B4F1A2
:1018E800FF3F02D0044B1B781C44FFF7EDFF401B61
:1018F800A042FAD338BD00BF24460020074AD36867
:1019080023F4E0631B041B0C000200F4E06018439E
:1019180040F0BF6040F40030D060704700ED00E058
:1019280030B4174BDB68C3F30223C3F10704042C5C
:1019380028BF04241D1D062D18D9033B4FF0FF3581
:1019480005FA04F421EA0401994005FA03F322EAAE
:101958000303194300280BDB0901C9B200F16040F9
:1019680000F5614080F8001330BC70470023E5E7BC
:1019780000F00F000901C9B2024B1954F4E700BF87
:1019880000ED00E014ED00E0002807DB00F01F0286
:10199800400901239340024A42F82030704700BFB3
:1019A80000E100E00138B0F1807F0AD2064B5860B0
:1019B800064AF02182F823100020986007221A6056
:1019C80070470120704700BF10E000E000ED00E024
:1019D80070B110B50446037933B102232371002096
:1019E80020610123237110BD4371FFF7A3FDF4E7C4
:1019F800012070474379012B2AD030B40123437169
:101A0800022202710468226801F01005AB401343FA
:101A1800236089B90268136803F03C03042B06D0DD
:101A28000123037100234371184630BC7047536883
:101A380043F001035360F3E70268136803F470137B
:101A4800B3F5802FECD1536843F002035360E7E706
:101A580002207047F8B5069C4579012D6DD0012507
:101A6800457102250571002934D18568344EEE622E
:101A78008568344E2E638568334E6E630668356814
:101A880045F480553560042C1ED0082C1FD00CB1AD
:101A98000D4601E00568083516460F46044600293C
:101AA80036D101680A6842F400520A602A46314673
:101AB800806800F0B9F900236371002833D02369E6
:101AC80043F004032361F8BD05680C35E4E70568B5
:101AD8001035E1E7C5681D4EEE62C5681C4E2E63E1
:101AE800C5681C4E6E630668356845F080553560DC
:101AF800042C07D0082C08D00CB10025CCE70568C9
:101B08001435C9E705681835C6E705681C35C3E705
:101B180001680A6842F000520A602A463146C068E5
:101B280000F082F9C7E72468236807F01001012252
:101B380002FA01F119432160C5E70220C3E700BF9B
:101B4800631B0008751B0008811B0008D71C0008D0
:101B5800E71C0008F11C0008704710B5846A20468D
:101B6800FFF7FAFF0123237110BD704708B5806A9B
:101B7800FFF7FBFF08BD704710B5846A236943F07F
:101B8800040323612046FFF7F6FF0123237110BDEC
:101B9800F8B54379012B00F0958016460D460446AA
:101BA80001234371022303710B68042B32D02B6984
:101BB800012B7AD02068C36B06F0100207219140F0
:101BC80023EA01012B68AE683343EE683343934040
:101BD8000B43C363206803684FF48041914023EAB4
:101BE800010303602068036840F6FC71914023EA12
:101BF80001016B6893400B43036020680368C021B0
:101C080001FA02F223EA0202026001232371002092
:101C18006071F8BDFFF758FE07467EB123685B6B1D
:101C2800002B3BDAFFF750FEC01B0128F6D92369C9
:101C380043F00803236103202071EAE723685B6B04
:101C480013F4004F0BD0FFF73FFEC01B0128F5D956
:101C5800236943F00803236103202071D9E7012099
:101C6800FFF738FE2368AA691A642068826C06F0B8
:101C7800100140F2FF338B4022EA0302EB698B40EC
:101C88001A4382642068C36CFF228A4023EA020355
:101C98002A6A02FA01F10B43C36488E70120FFF7BF
:101CA80019FE2368AA695A64DFE721688A6B06F07F
:101CB80010001F23834022EA03026B698340134309
:101CC8008B6377E70220A4E770477047704710B529
:101CD800846A2046FFF7F8FF0123237110BD08B579
:101CE800806AFFF7F2FF08BD10B5846A236943F0E4
:101CF800040323612046FFF7E9FF0123237110BD88
:101D080070B4446C04F01C05066C0124AC4074608B
:101D1800046863608368102B05D0036899600368C2
:101D2800DA6070BC704703689A600368D960F8E7A6
:101D3800002869D010B403460168344A914245D856
:101D4800334A0A443349A1FB021212099200426441
:101D5800314A0264022283F825201868016821F4B8
:101D6800FF4121F070019A68DC6822431C69224314
:101D78005C6922439C692243DC6922431C6A224332
:101D88000A4302609A68B2F5804F15D0196C224A4E
:101D9800914226D0214A1168586C00F01C040F208B
:101DA800A04021EA00011160116858685C6C04F0D9
:101DB8001C04A040014311600020D863012283F86D
:101DC800252083F824005DF8044B7047144A0A4420
:101DD8001049A1FB0212120992004264114A0264DE
:101DE800B8E7A8321168586C00F01C040F20A04016
:101DF80021EA00011160116858685C6C04F01C0449
:101E0800A04001431160D7E7012070470704024052
:101E1800F8FFFDBFCDCCCCCC00000240A8040240A6
:101E2800F8FBFDBF0004024038B590F82440012CAF
:101E380033D0012480F8244090F82540E4B2012CE6
:101E480004D0002380F82430022038BD0446022044
:101E580084F825000020E0632568286820F0010048
:101E680028602046FFF74CFF236B5BB1226813689C
:101E780043F00E0313602268136843F001031360F4
:101E88000020E2E72268136823F004031360226845
:101E9800136843F00A031360EDE70220D5E708B59D
:101EA80090F82530DBB2022B03D00423C363012052
:101EB80008BD0268136823F00E03136002681368F4
:101EC80023F001031360436C03F01C03016C01222F
:101ED80002FA03F34B6080F82520002380F82430B1
:101EE800836B13B198470020E2E70020E0E738B59C
:101EF800036C196804682568436C03F01C0304220A
:101F08009A400A4215D015F0040F12D0236813F036
:101F1800200F03D1236823F004032360436C03F0EC
:101F28001C02016C042393404B60036B03B1984778
:101F380038BD02229A400A421CD015F0020F19D06F
:101F4800236813F0200F06D1236823F00A032360C7
:101F5800012380F82530436C03F01C02016C022336
:101F680093404B60002380F82430C36A002BDFD0F5
:101F78009847DDE7082202FA03F30B42D8D015F0A0
:101F8800080FD5D0236823F00E032360436C03F0B9
:101F98001C03016C012202FA03F34B60C26380F850
:101FA8002520002380F82430436B002BC0D09847AD
:101FB800BEE70000F0B583B000233FE0C66A26EA1A
:101FC8000406C5F3C0049C403443C4625FE00624A1
:101FD80000E00024B4403C430235644E46F82540F6
:101FE800634C2568D44304EA05064F6817F4803F1C
:101FF80001D042EA05065E4D2E606D6804EA0506CA
:102008004F6817F4003F01D042EA0506584D6E604C
:10201800AD6804EA05064F6817F4801F01D042EA4C
:102028000506534DAE60ED682C404E6816F4001F4F
:1020380001D042EA05044E4AD46001330A6832FAF4
:1020480003F400F0918001249C402240F5D04D68B3
:102058006E1E012E03D9112D01D0122D12D18668C2
:102068005F000325BD4026EA0506CD68BD4035431F
:102078008560466826EA04064D68C5F300159D404C
:10208800354345604D6805F00306032E96D0C568B4
:102098005F000324BC40E44325408E68BE402E43C5
:1020A800C6604D68022D01D0122D13D1DE08083606
:1020B80050F826E003F007054FEA850C0F2505FACE
:1020C8000CF52EEA050E0D6905FA0CF545EA0E0524
:1020D80040F8265005682C404D6805F00305BD40C2
:1020E8002C4304604C6814F0805FA6D0214C256E08
:1020F80045F001052566246E04F001040194019C55
:102108009D08AE1C194C54F8267003F00304A60071
:102118000F24B44027EA0407B0F1904F3FF459AFB9
:10212800154CA04216D004F58064A04214D004F5E2
:102138008064A04212D004F58064A04210D004F557
:102148008064A0420ED004F58064A0423FF43FAF03
:1021580007243FE701243DE702243BE7032439E74E
:10216800042437E7052435E703B0F0BD000001403B
:10217800000401400010024000040048024B1868A7
:1021880000F4C060704700BF00700040B0F5007FE9
:102198000FD01F4B1B6803F4C063B3F5806F34D0B6
:1021A8001B4A136823F4C06343F480631360002060
:1021B8007047174B1B6803F4C063B3F5007F22D048
:1021C800134A136823F4C06343F400731360114B7C
:1021D8001A68322303FB02F30F4AA2FB03239B0C6A
:1021E800013300E0013B0A4A526912F4806F01D0C2
:1021F800002BF7D1064B5B6913F4806F01D10020E7
:10220800704703207047002070470020704700BFC8
:10221800007000402046002083DE1B4330B583B0A9
:102228000546204B9B6D13F0805F0BD0FFF7A6FF90
:10223800B0F5007F17D0802D1FD82DD0702D2DD050
:1022480000211BE0174CA36D43F08053A365A36DD9
:1022580003F080530193019BFFF790FFA36D23F0D8
:102268008053A365E4E7802D03D9A02D03D902216B
:1022780004E0002102E0012100E003210A4A13687A
:1022880023F007030B431360136803F007038B4223
:1022980006D0012003B030BD0221EFE70121EDE7B0
:1022A8000020F7E70010024000200240284A936807
:1022B800D26802F0030213F00C030AD00C2B06D0EC
:1022C800042B1FD0082B20D00020024610E0012A42
:1022D800F6D11F4A126812F0080F0CD11C4AD2F826
:1022E8009420C2F303221B4951F8222043B1002055
:1022F8000C2B0DD07047164A1268C2F30312F2E78E
:102308001046F5E714480022F2E714480022EFE7E8
:102318000F4BDB6803F00303022B15D0032B15D0FA
:102328000B4BD868C0F302100130D968C1F30621FD
:1023380002FB01F2B2FBF0F2D868C0F34160013051
:102348004000B2FBF0F0D5E7034AE9E7034AE7E7C4
:10235800001002407C4600080024F40000127A00B5
:10236800002800F00083F0B583B00446AF4B9D68A9
:1023780005F00C05DE6806F00306036813F0100F7D
:102388005BD0E5B10C2D18D0A369002B00F0BC8000
:10239800A64A136843F001031360FFF795FA07464E
:1023A800A24B1B6813F0020F40F09B80FFF78CFADA
:1023B800C01B0228F4D90323E1E2012EE4D19B4B90
:1023C8001B6813F0020F03D0A369002B00F0CE8224
:1023D800206A964B1B6813F0080F5CD0934B1B6860
:1023E80003F0F00398425DD8904B1A6842F0080257
:1023F8001A601A6822F0F002216A0A431A605A68C1
:1024080022F47F42E16942EA01225A60002D61D03C
:10241800FFF74CFF854B9B68C3F30313844AD35CD7
:1024280003F01F03D840834B1860834B1868FFF7ED
:1024380003FA0346002840F0A282236813F0010F34
:1024480000F08180082D75D00C2D71D06368B3F52C
:10245800803F00F09780B3F5A02F00F09980734B70
:102468001A6822F480321A601A6822F480221A60EC
:102478006368002B00F09980FFF726FA07466B4B3C
:102488001B6813F4003F5ED1FFF71EFAC01B6428D7
:10249800F5D9032373E2654BD3F894301B0903F095
:1024A800F0039FE7FFF7BAFE002840F061825F4B18
:1024B8001A6842F008021A601A6822F0F002216ACB
:1024C8000A431A605A6822F47F42E16942EA01220B
:1024D8005A609DE7206AFFF7A1FE002898D00123E3
:1024E8004DE2524B1A6842F008021A601A6822F04C
:1024F800F002216A0A431A605A6822F47F42E169AD
:1025080042EA01225A6098E7484A136823F0010317
:102518001360FFF7D9F90746444B1B6813F0020F05
:102528008BD0FFF7D1F9C01B0228F5D9032326E287
:10253800032E8BD13D4B1B6813F4003F03D0636817
:10254800002B00F01782236813F0020F4FD0042DE0
:102558003CD00C2D38D0E368002B78D0334A136870
:1025680043F480731360FFF7AFF906462F4B1B68DF
:1025780013F4806F62D1FFF7A7F9801B0228F5D901
:102588000323FCE1294A136843F4803313606FE79F
:1025980003F18043A3F53C331A6842F480221A60A1
:1025A8001A6842F480321A6062E7FFF78DF907462D
:1025B8001E4B1B6813F4003FC5D0FFF785F9C01BFD
:1025C8006428F5D90323DAE1022EC4D1174B1B681E
:1025D80013F4806F03D0E368002B00F0CD81134A19
:1025E800536823F0F853216943EA01635360236871
:1025F80013F0080F56D06369002B3CD00B4AD2F871
:10260800943043F00103C2F89430FFF75DF90646B1
:10261800064BD3F8943013F0020F43D1FFF754F967
:10262800801B0228F4D90323A9E100BF001002404F
:10263800AC4600082046002028460020B84A5368C7
:1026480023F0F853216943EA01635360CFE7B44AA2
:10265800136823F480731360FFF736F90646B04B0E
:102668001B6813F4806FC2D0FFF72EF9801B022875
:10267800F5D9032383E1AA4AD2F8943023F0010361
:10268800C2F89430FFF720F90646A54BD3F89430EA
:1026980013F0020F06D0FFF717F9801B0228F4D9B0
:1026A80003236CE1236813F0040F7AD09C4B9B6DD5
:1026B80013F0805F0BD19A4B9A6D42F080529A6565
:1026C8009B6D03F080530193019B012600E00026D7
:1026D800944B1B6813F4807F26D0A368012B37D056
:1026E800052B3DD08E4BD3F8902022F00102C3F881
:1026F8009020D3F8902022F00402C3F89020A36819
:10270800002B3BD0FFF7E0F80746854BD3F8903015
:1027180013F0020F44D1FFF7D7F8C01B41F28833FA
:102728009842F2D903232AE17E4A136843F480735E
:102738001360FFF7C9F807467A4B1B6813F4807FCC
:10274800CBD1FFF7C1F8C01B0228F5D9032316E146
:10275800734AD2F8903043F00103C2F89030CEE7C4
:102768006F4BD3F8902042F00402C3F89020D3F8BE
:10277800902042F00102C3F89020C0E7FFF7A4F8C8
:102788000746674BD3F8903013F0020F08D0FFF7D5
:102798009BF8C01B41F288339842F2D90323EEE03C
:1027A8006EBBA36A002B00F0E980022B2DD00C2D04
:1027B80000F0EE805A4B1A6822F080721A601B688B
:1027C80013F0205F04D1564AD36823F00303D36083
:1027D800534AD36823F0887323F48033D360FFF718
:1027E80073F804464E4B1B6813F0007F00F0B98065
:1027F800FFF76AF8001B0228F4D90323BFE0484A10
:10280800936D23F080539365CBE7454BDB6803F06A
:102818000301E26A91420FD00C2D00F0B380404BC7
:102828001B6813F0806F40F0AF803D4B1B6813F0BE
:10283800805F2DD00123A2E003F07002216B0139E3
:10284800B2EB011FE8D103F4FE42616BB2EB012F3A
:10285800E2D103F40031A26B073A18BF012291427A
:10286800DAD103F4C001E26B5208013AB1EB425FDE
:10287800D2D103F0C063226C5208013AB3EB426F25
:10288800CAD1274B1B6813F0007F51D0002376E094
:10289800234A136823F080731360FFF715F8054681
:1028A8001F4B1B6813F0007F06D0FFF70DF8401B85
:1028B8000228F5D9032362E0194AD3681A49194056
:1028C800E36A206B013843EA0013606B43EA002394
:1028D800E06B4008013843EA4053206C4008013857
:1028E80043EA4063A06B000943EA40430B43D360CB
:1028F800136843F080731360D36843F08073D36028
:10290800FEF7E2FF0446064B1B6813F0007F0DD16B
:10291800FEF7DAFF001B0228F5D903232FE000BFDA
:1029280000100240007000408C809DF9002326E0D2
:10293800184B1A6842F080721A60DA6842F08072A6
:10294800DA60FEF7C1FF044604E0FEF7BDFF001B96
:1029580002281BD80F4B1B6813F0007FF5D000230B
:102968000DE000230BE0012318467047012306E021
:10297800012304E0012302E0012300E000231846BC
:1029880003B0F0BD0123FAE70123F8E70323F6E7D4
:102998000123F4E700100240002800F09B8070B586
:1029A80004464E4B1B6803F007038B420CD24B4A7C
:1029B800136823F007030B431360136803F007033E
:1029C8008B4201D0012070BD0D46236813F0010F22
:1029D80039D06368032B09D0022B26D063BB404A49
:1029E800126812F0020F06D10120ECE73C4A126887
:1029F80012F0007F70D03A498A6822F0030213432C
:102A08008B60FEF761FF0646354B9B6803F00C03AD
:102A18006268B3EB820F16D0FEF756FF801B41F2B7
:102A280088339842F0D90320CDE72D4A126812F472
:102A3800003FE0D10120C6E7294A126812F4806FEE
:102A4800D9D10120BFE7236813F0020F06D0244A2A
:102A5800936823F0F003A1680B4393601F4B1B6836
:102A680003F00703AB420CD91C4A136823F0070391
:102A78002B431360136803F00703AB4201D0012016
:102A8800A1E7236813F0040F06D0154A936823F4CE
:102A9800E063E1680B439360236813F0080F07D0E5
:102AA8000F4A936823F46053216943EAC103936092
:102AB800FFF7FCFB0A4B9B68C3F30313094AD35C7B
:102AC80003F01F03D840084B1860084B1868FEF73E
:102AD800B3FE78E701207047012074E70020024028
:102AE80000100240AC46000820460020284600207E
:102AF800014B1868704700BF2046002008B5FFF753
:102B0800F7FF054B9B68C3F30223044AD35C03F029
:102B18001F03D84008BD00BF00100240BC46000893
:102B280008B5FFF7E5FF054B9B68C3F3C223044ACA
:102B3800D35C03F01F03D84008BD00BF001002405B
:102B4800BC460008F8B55A4BDB6813F0030F18D0E1
:102B5800574BDB6803F003030268934202D0012558
:102B68002846F8BD002A00F0A080514BDB68C3F36B
:102B7800021301334268934201D00125F0E7002592
:102B88001AE00368022B59D0032B5ED0012B01D029
:102B980001250FE0464A126812F0020F61D0444D39
:102BA800EA6822F073024468013C43EA04131343C1
:102BB800EB600025002DD3D10F4604463C4A13682C
:102BC80023F080631360FEF77FFE0646384B1B68D0
:102BD80013F0006F05D0FEF777FE801B0228F5D9A9
:102BE8000325002DBCD1002F3DD131490B6923F4B9
:102BF8001F3323F44073A068E2681209520442EAC2
:102C0800002213430B612A4A136843F08063136060
:102C1800FEF75AFE0646264B1B6813F0006F05D1D7
:102C2800FEF752FE801B0228F5D90325002D97D107
:102C38001F4A1369A1690B43136191E71C4A126883
:102C480012F4806FABD10125B4E7194A126812F467
:102C5800003FA4D1164A126812F4802F9FD1012593
:102C6800A8E70125A6E7012F0FD01148026922F035
:102C7800C06222F4FE42A16863695B08013B5B06FF
:102C880043EA012313430361BDE70948026922F4BB
:102C9800C00222F4FE42A16823695B08013B5B0580
:102CA80043EA012313430361ADE7012558E700BF59
:102CB80000100240F8B5514BDB6813F0030F18D031
:102CC8004E4BDB6803F003030268934202D00125F0
:102CD8002846F8BD002A00F08E80484BDB68C3F315
:102CE800021301334268934201D00125F0E7002521
:102CF8001AE00368022B59D0032B5ED0012B01D0B8
:102D080001250FE03D4A126812F0020F61D03B4DD9
:102D1800EA6822F073024468013C43EA041313434F
:102D2800EB600025002DD3D10F460446334A1368C3
:102D380023F080531360FEF7C7FD06462F4B1B6830
:102D480013F0005F05D0FEF7BFFD801B0228F5D900
:102D58000325002DBCD1002F3DD128494B6923F410
:102D68001F3323F44073A068E2681209520442EA50
:102D7800002213434B61214A136843F080531360C8
:102D8800FEF7A2FD06461D4B1B6813F0005F05D138
:102D9800FEF79AFD801B0228F5D90325002D97D14F
:102DA800164A536961690B43536191E7134A1268E4
:102DB80012F4806FABD10125B4E7104A126812F4FF
:102DC800003FA4D10D4A126812F4802F9FD101252B
:102DD800A8E70125A6E70948426922F0C06222F463
:102DE800FE42A16823695B08013B5B0643EA0123B5
:102DF80013434361BFE701256AE700BF00100240A3
:102E08002DE9F04182B00446036813F4006F2FD017
:102E1800436EB3F5800F25D008D9B3F5000F10D055
:102E2800B3F5400F40F09980002610E0002B40F0E9
:102E3800948000210430FFF785FE06463EB13746F0
:102E480018E05E4AD36843F48033D36000265B4AB7
:102E5800D2F8883023F44003616E0B43C2F88830FF
:102E6800002707E000212030FFF724FF0646E5E7AA
:102E780000273E46236813F4805F15D0A36EB3F194
:102E8800807F7AD06CD9B3F1007F70D0B3F1407FE6
:102E98007AD1002E7BD1494AD2F8883023F040738A
:102EA800A16E0B43C2F88830236813F4003F00F08A
:102EB8008E80424B9B6D13F0805F6AD13F4B9A6DB9
:102EC80042F080529A659B6D03F080530193019BF9
:102ED8004FF001083A4A136843F480731360FEF711
:102EE800F3FC0546364B1B6813F4807F05D1FEF7CB
:102EF800EBFC401B0228F5D90326002E62D12F4B8C
:102F0800D3F8903013F4407316D0D4F884209A4242
:102F180012D02A4AD2F8903023F44073D2F8901095
:102F280041F48031C2F89010D2F8901021F4803129
:102F3800C2F89010C2F8903013F0010F2CD1002E77
:102F480040F043811D4AD2F8903023F44073D4F8FE
:102F580084100B43C2F8903035E001273E4689E7DC
:102F680093B90021201DFFF7EDFD064691E7134AAE
:102F7800D36843F48033D3608BE7002104F1200049
:102F8800FFF798FE064684E701273E468CE737465A
:102F98008AE74FF000089DE7FEF796FC0546074BC9
:102FA800D3F8903013F0020FC9D1FEF78DFC401B07
:102FB80041F288339842F2D90326C0E70010024054
:102FC800007000403746B8F1000F40F000812368D8
:102FD80013F0010F08D09D4AD2F8883023F003037C
:102FE800A16B0B43C2F88830236813F0020F08D096
:102FF800964AD2F8883023F00C03E16B0B43C2F8F1
:103008008830236813F0040F08D0904AD2F888302B
:1030180023F03003216C0B43C2F88830236813F087
:10302800080F08D0894AD2F8883023F0C003616CB1
:103038000B43C2F88830236813F0100F08D0834A76
:10304800D2F8883023F44073A16C0B43C2F888305F
:10305800236813F0200F08D07C4AD2F8883023F474
:103068004063E16C0B43C2F88830236813F4007F97
:1030780008D0764AD2F8883023F44023E16D0B4318
:10308800C2F88830236813F4806F08D06F4AD2F8EA
:10309800883023F44013216E0B43C2F8883023682C
:1030A80013F0400F08D0694AD2F8883023F440530F
:1030B800216D0B43C2F88830236813F0800F08D0C5
:1030C800624AD2F8883023F44043616D0B43C2F85A
:1030D8008830236813F4807F08D05C4AD2F888309F
:1030E80023F44033A16D0B43C2F88830236813F4EE
:1030F800005F0FD0554AD2F8883023F04063E16E64
:103108000B43C2F88830E36EB3F1006F65D0B3F1BA
:10311800806F67D0236813F4002F0FD04B4AD2F882
:10312800883023F04063216F0B43C2F88830236F47
:10313800B3F1006F5ED0B3F1806F60D0236813F4F1
:10314800802F0FD0414AD2F8883023F04063616F56
:103158000B43C2F88830636FB3F1006F57D0B3F1F7
:10316800806F59D0236813F4804F0FD0374AD2F8B4
:10317800883023F04053A16F0B43C2F88830A36F07
:10318800B3F1805F50D0B3F1005F55D0236813F4DA
:10319800004F08D02D4AD2F8883023F08043E16FE1
:1031A8000B43C2F88830236813F4803F09D0274ABC
:1031B800D2F8883023F00043D4F880100B43C2F8CB
:1031C8008830384602B0BDE8F0813746FBE61F4A32
:1031D800936D23F080539365F9E6D36843F4801325
:1031E800D36097E70121201DFFF7ACFC002891D0A0
:1031F80007468FE7D36843F48013D3609EE7012125
:10320800201DFFF79FFC002898D0074696E7D36853
:1032180043F48013D360A5E70121201DFFF792FC3A
:1032280000289FD007469DE70221201DFFF78AFC52
:103238000028ABD00746A9E7022104F12000FFF7D8
:1032480039FD0028A2D00746A0E700BF00100240C1
:1032580030B4036A23F001030362036A4468826995
:1032680022F4803222F073020D682A4323F002030D
:103278008D682B431C4DA8420FD005F50065A84268
:103288000BD005F54065A84207D005F58065A84232
:1032980003D005F58065A84205D123F00803CD6861
:1032A8002B4323F00403104DA8420FD005F5006509
:1032B800A8420BD005F54065A84207D005F5806502
:1032C800A84203D005F58065A84205D124F44075CD
:1032D8004C692C438D692C43446082614A6842637F
:1032E800036230BC704700BF002C014030B4036A51
:1032F80023F480730362036A4468C26922F480324B
:1033080022F073020D682A4323F400738D6843EAA0
:103318000523184DA84203D005F50065A84206D13B
:1033280023F40063CD6843EA052323F48063114D39
:10333800A8420FD005F50065A8420BD005F54065F9
:10334800A84207D005F58065A84203D005F5806539
:10335800A84207D124F440544D6944EA05148D6904
:1033680044EA05144460C2614A68C263036230BC1F
:10337800704700BF002C014030B4036A23F4805327
:103388000362036A4468C26922F0807222F4E6424A
:103398000D6842EA052223F400538D6843EA053399
:1033A8000F4DA8420FD005F50065A8420BD005F5D2
:1033B8004065A84207D005F58065A84203D005F509
:1033C8008065A84204D124F480444D6944EA8514F8
:1033D8004460C2614A680264036230BC704700BF3F
:1033E800002C014030B4036A23F480330362036A7B
:1033F8004468426D22F4803222F070020D682A433C
:1034080023F400338D6843EA05430F4DA8420FD0DB
:1034180005F50065A8420BD005F54065A84207D020
:1034280005F58065A84203D005F58065A84204D15A
:1034380024F480344D6944EA0524446042654A68AE
:103448008265036230BC7047002C014030B4036AC7
:1034580023F480130362036A4468426D22F0807289
:1034680022F4E0420D6842EA052223F400138D6835
:1034780043EA05530F4DA8420FD005F50065A84251
:103488000BD005F54065A84207D005F58065A84230
:1034980003D005F58065A84204D124F480244D6941
:1034A80044EA8524446042654A68C265036230BCC8
:1034B800704700BF002C014090F83D30DBB2012B73
:1034C80001D001207047022380F83D300368194A73
:1034D80093421CD0B3F1804F19D0A2F59432934295
:1034E80015D002F58062934211D002F580629342B2
:1034F8000DD002F59432934209D002F5406293420E
:1035080005D01A6842F001021A60002070479968D5
:10351800094A0A40062A08D0B2F5803F07D01A683F
:1035280042F001021A600020704700207047002016
:10353800704700BF002C0140070001000368196AAA
:1035480041F21112114208D1196A40F24442114263
:1035580003D11A6822F001021A60012380F83D3075
:10356800002070470368304A904212D0B0F1804F73
:103578000FD0A2F5943290420BD002F580629042AF
:1035880007D002F58062904203D002F5943290424F
:1035980003D123F070034A681343234A90421ED094
:1035A800B0F1804F1BD0A2F59432904217D002F5AB
:1035B8008062904213D002F5806290420FD002F5EB
:1035C800943290420BD002F54062904207D002F547
:1035D8008062904203D002F58062904203D123F4C6
:1035E8004073CA68134323F080034A691343036096
:1035F8008B68C3620B6883620B4B98420FD003F54C
:10360800006398420BD003F54063984207D003F556
:103618008063984203D003F58063984201D10B6917
:103628000363012343617047002C014058B310B570
:10363800044690F83D300BB3022384F83D30211D39
:103648002068FFF78FFF012384F8483084F83E3064
:1036580084F83F3084F8403084F8413084F84230B0
:1036680084F8433084F8443084F8453084F8463090
:1036780084F8473084F83D30002010BD80F83C3095
:10368800FDF7E0FFD8E70120704758B310B50446AE
:1036980090F83D300BB3022384F83D30211D20689B
:1036A800FFF760FF012384F8483084F83E3084F83F
:1036B8003F3084F8403084F8413084F8423084F850
:1036C800433084F8443084F8453084F8463084F830
:1036D800473084F83D30002010BD80F83C30FDF7BD
:1036E8009BFFD8E70120704730B4036A23F010032A
:1036F8000362036A4468826922F0807222F4E64217
:103708000D6842EA052223F020038D6843EA051379
:10371800174DA84203D005F50065A84206D123F04D
:103728008003CD6843EA051323F04003104DA842F7
:103738000FD005F50065A8420BD005F54065A842F5
:1037480007D005F58065A84203D005F58065A84235
:1037580007D124F440644D6944EA85048D6944EA3C
:103768008504446082614A688263036230BC7047A2
:10377800002C014038B590F83C30012B00F08C80CB
:103788000D460446012380F83C30142A1ED8DFE891
:1037980002F00B1D1D1D211D1D1D351D1D1D481D64
:1037A8001D1D5C1D1D1D6F000068FFF751FD22687F
:1037B800936943F0080393612268936923F0040333
:1037C80093612268936929690B439361002084F807
:1037D8003C0038BD0068FFF787FF2268936943F40F
:1037E800006393612268936923F48063936122687C
:1037F8009369296943EA01239361E7E70068FFF7C2
:1038080075FD2268D36943F00803D3612268D36940
:1038180023F00403D3612268D36929690B43D36178
:10382800D4E70068FFF7A8FD2268D36943F4006372
:10383800D3612268D36923F48063D3612268D36992
:10384800296943EA0123D361C0E70068FFF7CAFD8D
:103858002268536D43F0080353652268536D23F0C3
:10386800040353652268536D29690B435365ADE71B
:103878000068FFF7EBFD2268536D43F4006353655E
:103888002268536D23F4806353652268536D296958
:1038980043EA0123536599E702209AE710B401F03F
:1038A8001F01012303FA01F4036A23EA04030362F4
:1038B800036A8A40134303625DF8044B70470000B3
:1038C8000A4600294ED190F83E30DBB213F1FF339F
:1038D80018BF0123002B40F09F8010B5002A71D13A
:1038E800022380F83E301146044601220068FFF7A3
:1038F800D5FF23684B4A93420FD002F500629342EA
:103908000BD002F54062934207D002F580629342E1
:1039180003D002F58062934203D15A6C42F400420C
:103928005A6423683F4A934268D0B3F1804F65D008
:10393800A2F59432934261D002F5806293425DD041
:1039480002F58062934259D002F59432934255D0E1
:1039580002F54062934251D01A6842F001021A609F
:10396800002058E004290DD0082913D00C2919D0BB
:1039780010291FD090F84330DBB213F1FF3318BF82
:103988000123A7E790F83F30DBB213F1FF3318BFEC
:1039980001239FE790F84030DBB213F1FF3318BFE3
:1039A800012397E790F84130DBB213F1FF3318BFDA
:1039B80001238FE790F84230DBB213F1FF3318BFD1
:1039C800012387E7042A09D0082A0BD00C2A0DD036
:1039D800102A0FD0022380F8433084E7022380F8AE
:1039E8003F3080E7022380F840307CE7022380F8EC
:1039F800413078E7022380F8423074E799680A4A30
:103A08000A40062A0AD0B2F5803F09D01A6842F067
:103A180001021A60002010BD012070470020FAE75B
:103A28000020F8E7002C01400700010038B50446E3
:103A38000D4600220068FFF731FF2368284A9342A9
:103A48000FD002F5006293420BD002F54062934218
:103A580007D002F58062934203D002F58062934258
:103A68000DD1196A41F21112114208D1196A40F2B6
:103A78004442114203D15A6C22F400425A6423682A
:103A8800196A41F21112114208D1196A40F24442EE
:103A9800114203D11A6822F001021A605DB1042DA7
:103AA8000ED0082D10D00C2D12D0102D14D00123BB
:103AB80084F8433002E0012384F83E30002038BD0A
:103AC800012384F83F30F9E7012384F84030F5E713
:103AD800012384F84130F1E7012384F84230EDE70F
:103AE800002C014090F83C30012B42D030B4012327
:103AF80080F83C30022380F83D30026853689568AE
:103B08001D4CA24203D004F50064A24203D123F461
:103B180070034C68234323F070030C6823435360FD
:103B28000368154A934216D0B3F1804F13D0A2F51B
:103B3800943293420FD002F5806293420BD002F583
:103B48008062934207D002F59432934203D002F583
:103B58004062934204D125F080058A6815439D6030
:103B6800012380F83D30002380F83C30184630BCF3
:103B780070470220704700BF002C0140026813689C
:103B880023F4907313600268936823F00103936031
:103B9800202383670023036670470000836F202B70
:103BA8005AD100295AD0002A5AD090F87030012BE7
:103BB80058D0012380F870304165A0F85820A0F84B
:103BC8005A20002303668368B3F5805F06D0A3B943
:103BD800036973B9FF23A0F85C3014E0036923B9C3
:103BE80040F2FF13A0F85C300DE0FF23A0F85C3032
:103BF80009E07F23A0F85C3005E0B3F1805F1BD0BB
:103C08000023A0F85C300023C3672223836702687F
:103C1800936843F0010393608368B3F5805F15D020
:103C2800114B0366002380F8703001680A6842F47B
:103C380090720A601846704703691BB97F23A0F881
:103C48005C30E0E73F23A0F85C30DCE70369002B39
:103C5800E6D1064B0366E5E702207047012070476E
:103C68000120704702207047953C0008F73C000887
:103C7800704708B501680A6822F040020A602022ED
:103C8800426700224266FFF7F3FF08BD08B5B0F8A7
:103C98005C30826F222A05D00268138B43F0080338
:103CA800138308BD0268918CDBB2426D0B40137020
:103CB800436D01334365B0F85A30013B9BB2A0F81D
:103CC8005A30B0F85A309BB2002BEAD10268136818
:103CD80023F4907313600268936823F001039360E0
:103CE8002023836700230366FDF742F8D9E708B568
:103CF800B0F85C30826F222A05D00268138B43F03B
:103D08000803138308BD0268918C426D0B40138031
:103D1800436D02334365B0F85A30013B9BB2A0F8BB
:103D28005A30B0F85A309BB2002BEBD102681368B6
:103D380023F4907313600268936823F0010393607F
:103D48002023836700230366FDF712F8DAE770473C
:103D580070B504460168CB6908688D6840F60F02A3
:103D68001A400CD113F0200F09D010F0200F06D004
:103D7800236E002B00F0A180204698479DE0002A82
:103D88007DD015F0010202D14E4E304277D013F0AB
:103D9800010F07D010F4807F04D001250D62E16F78
:103DA8002943E16713F0020F07D032B121680225D9
:103DB8000D62E16F41F00401E16713F0040F07D0D1
:103DC80032B1216804250D62E16F41F00201E1671B
:103DD80013F0080F09D010F0200F00D12AB1226883
:103DE80008211162E26F0A43E26713F4006F0AD0F8
:103DF80010F0806F07D022684FF400611162E26F03
:103E080042F02002E267E26F002A56D013F0200F3A
:103E180006D010F0200F03D0236E0BB12046984730
:103E2800E26F23689B6813F0400F02D112F0280F4D
:103E38001FD02046FFF7A2FE23689A6812F0400FB1
:103E480013D09A6822F040029A60E36E4BB11E4A82
:103E58009A63E06EFEF723F878B3E06E836B9847B9
:103E68002BE02046FFF773FF27E02046FFF76FFFA0
:103E780023E02046FFF76BFF0023E3671DE013F400
:103E8800801F02D015F4800F0AD113F0800F0ED0D6
:103E980010F0800F0BD0636E7BB1204698470CE082
:103EA8004FF480130B62204600F032FB05E013F05C
:103EB800400F02D010F0400F00D170BD2046FFF730
:103EC800D8FEFAE720010004D53E000808B5806A4C
:103ED8000023A0F85A30A0F85230FFF738FF08BD89
:103EE8002DE9D8480446016883680269134342698A
:103EF8001343C269134308689B4A024013430B608B
:103F08002268536823F44053E1680B435360A16966
:103F18002268964B9A4201D0236A1943936823F486
:103F280030630B4393602368914A934227D0914AA8
:103F3800934238D0904A93424ED0904A934261D0EF
:103F48008F4A934274D0894A934200F08A801022A3
:103F580086498B4200F0AA80E369B3F5004F00F070
:103F6800D880082A00F24581DFE812F015012C01FB
:103F7800130143012F01430143014301320102F5BB
:103F88005842D2F8882002F00302032A09D8DFE851
:103F980002F0020481060122DAE70422D8E70822A7
:103FA800D6E71022D4E702F5E632D2F8882002F0EC
:103FB8000C020C2A0ED8DFE802F0070D0D0D090DD2
:103FC8000D0D6F0D0D0D0B000022C1E70422BFE798
:103FD8000822BDE71022BBE702F5E432D2F88820B8
:103FE80002F03002102A09D005D9202A56D0302AEA
:103FF80006D10822ACE71AB90022A9E70422A7E7EC
:104008001022A5E702F5E232D2F8882002F0C002B9
:10401800402A09D005D9802A42D0C02A06D10822D0
:1040280096E71AB9002293E7042291E710228FE756
:1040380002F5E032D2F8882002F44072B2F5807FAF
:104048000BD007D9B2F5007F2CD0B2F5407F06D14E
:1040580008227DE71AB900227AE7042278E71022BD
:1040680076E702F5C832D2F8882002F44062B2F549
:10407800806F0BD007D9B2F5006F15D0B2F5406F3D
:1040880006D1082264E71AB9002261E704225FE733
:1040980010225DE702225BE7022259E7022257E776
:1040A800022255E7022253E7022251E7082A00F2CA
:1040B8009280DFE802F0089010900D909090050033
:1040C8004FF4004008E0FEF719FD28B9002074E01D
:1040D800FEF7ECF8F9E72B48626802EB42038342EB
:1040E8007BD8B0EB023F7AD80023070E06025008AF
:1040F80016EB000B47F1000C58466146FCF756FCDE
:10410800A0F54072204B9A426BD82368D8600020F3
:1041180053E0082A67D8DFE802F00721056624661D
:1041280066663900174803E0FEF7E8FC00285CD013
:104138006268530803EB4003B3FBF2F39BB2A3F1AD
:1041480010014FF6EF72914251D823F00F02C3F3DA
:10415800420313432268D36000202EE0FEF7E0FC00
:10416800E4E7FEF7A3F8E1E7F369FFEF008000401A
:10417800003801400044004000480040004C004026
:10418800005000400024F400FFFC0F004FF40040F2
:10419800CEE71B4802E0FEF7B1FC60B3636800EBB2
:1041A8005300B0FBF3F080B2A0F110024FF6EF73AA
:1041B8009A4222D82368D8600020002323666366C9
:1041C800BDE8D888FEF7ACFCE7E7FEF76FF8E4E750
:1041D8004FF40040E2E70120EFE70120EDE701207E
:1041E800EBE70120E9E70120E7E70020E5E7012008
:1041F800E3E70120E1E70020DFE70120DDE700BF7A
:104208000024F400436A13F0010F06D002685368D3
:1042180023F40033816A0B435360436A13F0020F9F
:1042280006D00268536823F48033C16A0B43536095
:10423800436A13F0040F06D00268536823F48023FE
:10424800016B0B435360436A13F0080F06D00268F2
:10425800536823F40043416B0B435360436A13F0E4
:10426800100F06D00268936823F48053816B0B43C8
:104278009360436A13F0200F06D00268936823F412
:104288000053C16B0B439360436A13F0400F0AD08D
:104298000268536823F48013016C0B435360036C6A
:1042A800B3F5801F0BD0436A13F0800F06D0026865
:1042B800536823F40023816C0B43536070470268F2
:1042C800536823F4C003416C0B435360EBE72DE9BB
:1042D800F04104460F4616469846069D2368DB695A
:1042E80037EA03030CBF01230023B3423AD1B5F1E7
:1042F800FF3FF3D0FDF7E8FAA0EB0800A8421FD86B
:10430800F5B123681A6812F0040FE7D0DA6912F4DD
:10431800006FE3D04FF400621A622268136823F436
:10432800D07313602268936823F0010393602023FD
:104338006367A367E367002384F87030032012E003
:104348002268136823F4D07313602268936823F0FB
:104358000103936020236367A367002384F8703008
:10436800032000E00020BDE8F0812DE9F04182B093
:104378001E46436F202B55D104460D469046002912
:1043880055D0002A55D090F87030012B53D0012316
:1043980080F870300023C36721234367FDF794FA40
:1043A8000746A4F85080A4F85280A368B3F5805F4C
:1043B80005D04FF00008002384F8703013E023691B
:1043C80013B14FF00008F6E7A8460025F3E738F8E0
:1043D800023B2268C3F308031385B4F85230013B4B
:1043E8009BB2A4F85230B4F852309BB273B1009625
:1043F8003B46002280212046FFF769FFE8B9002DDF
:10440800E5D0236815F8012B1A85E6E700963B46A8
:10441800002240212046FFF75AFF034678B92022A0
:10442800626700E00223184602B0BDE8F08101236C
:10443800F9E70123F7E70223F5E70323F3E703236B
:10444800F1E730B583B004460023C367FDF73CFAB3
:10445800054623681B6813F0080F0CD123681B68F6
:1044680013F0040F15D120236367A367002084F895
:10447800700003B030BD6FF07E4300930346002206
:104488004FF400112046FFF722FF0028E6D0032052
:10449800EFE76FF07E4300932B4600224FF4800134
:1044A8002046FFF714FF0028DDD00320E1E768B3BA
:1044B80010B50446436F03B3242363672268136867
:1044C80023F0010313602046FFF70AFD012813D0EB
:1044D800636ABBB92268536823F490435360226827
:1044E800936823F02A0393602268136843F001035A
:1044F80013602046FFF7A5FF10BD80F87030FDF768
:10450800EFF8D9E72046FFF77DFEE3E70120704783
:1045180070470000DFF834D0FDF76AF9002103E0A6
:104528000B4B5B58435004310A480B4B42189A42D4
:10453800F6D30A4A02E0002342F8043B084B9A42A9
:10454800F9D300F011F8FCF725FFFEE70080012001
:10455800E0460008000000203046002030460020D9
:10456800E8480020FEE7000070B50D4E0D4CA41B76
:10457800A4100025A54209D10B4E0C4C00F020F8E0
:10458800A41BA4100025A54205D170BD56F82530FE
:1045980098470135EEE756F8253098470135F2E798
:1045A800D0460008D0460008D0460008D446000887
:1045B80002440346934200D1704703F8011BF9E710
:1045C800F8B500BFF8BC08BC9E467047F8B500BFF8
:0845D800F8BC08BC9E467047C8
:1045E000532500003A23000040210000621F000014
:1045F0009F1D0000F61B0000641A0000E91800006F
:104600008217000031160000F2140000C5130000EC
:10461000A91200009D110000A0100000B10F0000C1
:10462000CF0E0000FA0D0000310D0000740C0000E8
:10463000C10B0000180B0000780A0000E20900001E
:1046400054090000CE0800004F080000D807000001
:1046500067070000FD06000098060000390600000C
:10466000E00500008B0500003C050000F0040000A0
:1046700000000000A904000000000000A086010066
:10468000400D0300801A060000350C0040420F0068
:1046900080841E0000093D0000127A000024F4000E
:1046A00000366E010048E801006CDC0200000000EA
:1046B00000000000010203040607080900000000D2
:0846C0000102030400000000E8
:0846C8001CC3FF7F010000008C
:0846D000AD010008000000002C
:0846D800890100080000000048
:1046E000040000200C0000000C000000130000007B
:1046F000130000001500000015000000130000006A
:104700001300000011000000110000001000000064
:10471000100000000E0000000E0000000C00000061
:104720000C00000013000000130000001100000046
:104730001100000010000000100000000E0000003A
:104740000E00000013000000130000001100000024
:104750001100000010000000100000000E0000001A
:104760000E0000000C0000000C0000001300000010
:1047700013000000150000001500000013000000E9
:1047800013000000110000001100000010000000E4
:10479000100000000E0000000E0000000C000000E1
:1047A0000C000000C8000020010000000100000013
:1047B00001000000010000000100000001000000F5
:1047C00000000000010000000100000001000000E6
:1047D00001000000010000000100000001000000D5
:1047E00000000000010000000100000001000000C6
:1047F00001000000010000000100000001000000B5
:1048000000000000010000000100000001000000A5
:104810000100000001000000010000000100000094
:104820000000000001000000010000000100000085
:104830000100000001000000010000000100000074
:104840000000000001000000010000000100000065
:104850000100000001000000010000000100000054
:10486000000000000100000004000020C80000203B
:10487000300000003000000040548900405489009E
:10488000801A0600801A060040548900801A06002B
:104890002400000024000000240000002400000088
:1048A00013000000130000001600000016000000B6
:1048B000160000001600000018000000180000009C
:1048C0001A0000001A0000001A0000001B0000007F
:1048D0001A0000001A000000180000001800000074
:1048E000180000001800000015000000150000006E
:1048F0001100000011000000110000001300000072
:104900001500000015000000160000001600000051
:104910001600000016000000130000001300000045
:10492000130000001300000013000000120000003C
:104930001300000013000000150000001500000027
:104940001500000015000000120000001200000019
:104950000E0000000E0000000E0000000E0000001F
:1049600013000000130000001600000016000000F5
:1049700016000000160000001800000018000000DB
:104980001A0000001A0000001A0000001B000000BE
:104990001A0000001A0000001800000018000000B3
:1049A00018000000180000001500000015000000AD
:1049B00011000000110000001100000013000000B1
:1049C0001500000015000000160000001600000091
:1049D0001600000015000000130000001300000086
:1049E0001200000012000000120000001000000081
:1049F000120000001200000013000000130000006D
:104A0000130000001300000013000000130000005A
:104A1000130000001300000013000000130000004A
:104A200013000000130000001D0000001D00000026
:104A30001D0000001D0000001D0000001D00000002
:104A40001D0000001D0000001D0000001C000000F3
:104A50001A0000001A0000001800000018000000F2
:104A600018000000180000001500000015000000EC
:104A700011000000110000001100000013000000F0
:104A800015000000150000001600000016000000D0
:104A900016000000160000001300000013000000C4
:104AA00013000000130000001300000012000000BB
:104AB00013000000130000001500000015000000A6
:104AC0001500000015000000120000001200000098
:104AD0000E0000000E0000000E0000000E0000009E
:104AE0000E0000000E0000001D0000001D00000070
:104AF0001D0000001D0000001D0000001D00000042
:104B00001D0000001D0000001D0000001C00000032
:104B10001A0000001A000000180000001800000031
:104B2000180000001800000015000000150000002B
:104B3000110000001100000011000000130000002F
:104B4000150000001500000016000000160000000F
:104B50001600000015000000130000001300000004
:104B600012000000120000001200000010000000FF
:104B700012000000120000001300000013000000EB
:104B800013000000130000001300000013000000D9
:104B900013000000130000001300000013000000C9
:104BA00013000000130000000000000000000000DF
:104BB00000000000000000000000000001000000F4
:104BC00000000000000000000000000001000000E4
:104BD00000000000010000000000000000000000D4
:104BE00001000000010000000000000001000000C2
:104BF00000000000000000000000000001000000B4
:104C000000000000010000000000000000000000A3
:104C10000100000001000000000000000100000091
:104C20000000000000000000000000000100000083
:104C30000000000001000000000000000000000073
:104C40000100000001000000000000000100000061
:104C50000000000000000000000000000100000053
:104C60000000000001000000000000000000000043
:104C70000000000001000000000000000100000032
:104C80000000000000000000000000000100000023
:104C90000000000001000000000000000000000013
:104CA0000100000001000000000000000100000001
:104CB00000000000000000000000000001000000F3
:104CC00000000000010000000000000000000000E3
:104CD00001000000010000000000000001000000D1
:104CE00000000000000000000100000001000000C2
:104CF00000000000010000000000000000000000B3
:104D000001000000010000000000000001000000A0
:104D10000000000000000000000000000000000093
:104D20000000000001000000000000000000000082
:104D30000000000000000000000000000100000072
:104D40000000000000000000000000000000000063
:104D50000000000001000000000000000000000052
:104D60000100000001000000000000000100000040
:104D70000000000000000000000000000100000032
:104D80000000000001000000000000000000000022
:104D90000100000001000000000000000100000010
:104DA0000000000000000000000000000100000002
:104DB00000000000010000000000000000000000F2
:104DC00001000000010000000000000001000000E0
:104DD00000000000000000000000000001000000D2
:104DE00000000000010000000000000000000000C2
:104DF00000000000000000000000000001000000B2
:104E000000000000000000000000000000000000A2
:104E10000000000001000000000000000000000091
:104E2000010000000100000000000000010000007F
:104E30000000000000000000000000000100000071
:104E40000000000001000000000000000000000061
:104E5000010000000100000000000000010000004F
:104E60000000000000000000010000000100000040
:104E70000000000001000000000000000000000031
:104E8000010000000100000000000000010000001F
:104E90000000000000000000000000000000000012
:104EA0000000000001000000000000000000000001
:104EB00000000000000000000000000001000000F1
:104EC000C600000080841E00400D03001300000097
:104ED0001300000018000000180000001700000078
:104EE000170000001800000013000000130000006D
:104EF0001300000013000000130000001300000066
:104F00001300000013000000130000002400000044
:104F10002400000018000000180000001700000026
:104F200017000000180000001C0000001C0000001A
:104F30001C0000001C0000001C0000001C00000001
:104F40001C0000001C0000001C0000001D000000F0
:104F50001D0000001C0000001C0000001A000000E2
:104F60001A000000180000001D0000001D000000D5
:104F70001D0000001C0000001C0000001A000000C2
:104F80001A000000180000001800000018000000BF
:104F900018000000180000001A0000001A000000AD
:104FA0001A0000001A0000001A000000150000009E
:104FB0001500000015000000170000001700000099
:104FC0001700000017000000170000002400000078
:104FD0002400000018000000180000001700000066
:104FE000170000001800000013000000130000006C
:104FF0001300000013000000130000001300000065
:105000001300000013000000130000002400000043
:105010002400000018000000180000001700000025
:1050200017000000180000001F0000001F00000013
:105030001F0000001F0000001F0000001F000000F4
:105040001F0000001F0000001F0000001D000000E6
:105050001D0000001D0000001D0000001D000000DC
:105060001C0000001A0000001D0000001D000000D0
:105070001D0000001D0000001D00000024000000B5
:105080001A0000001C0000001D0000001C000000B1
:105090001C0000001C0000001C0000001C000000A0
:1050A0001A000000180000001C0000001C00000096
:1050B0001C0000001C0000001C0000001C00000080
:1050C0001C0000001C0000001C0000001500000077
:1050D0001500000017000000170000001800000075
:1050E000180000001A000000150000001500000064
:1050F0001500000017000000170000001800000055
:105100001A000000180000001F0000001F0000002F
:105110001F0000001F0000001F0000001F00000013
:105120001F0000001F0000001F00000024000000FE
:1051300024000000240000002400000018000000EB
:105140001A0000001C0000001D0000001F000000ED
:105150001F0000001C0000001800000024000000D8
:105160001F0000001F0000001F0000001D000000C5
:105170001D0000001A0000001A0000001A000000C4
:105180001A0000001A0000001A0000001D000000B4
:105190001D0000001A00000017000000240000009D
:1051A0001D0000001D0000001D0000001C0000008C
:1051B000180000001800000018000000180000008F
:1051C0001800000018000000180000002400000073
:1051D000240000001400000014000000180000006B
:1051E000180000001D0000001D0000001C00000051
:1051F0001C0000001F000000180000001800000044
:1052000018000000240000001C0000001D00000029
:105210001C0000001D0000001C0000001D0000001C
:105220001C000000180000001A0000001A00000016
:105230001A0000001A0000001A0000001800000008
:105240001A0000001C0000001D0000001F000000EC
:105250001F0000001C0000001800000024000000D7
:105260001F0000001F0000001F0000001D000000C4
:105270001D0000001A0000001A0000001A000000C3
:105280001A0000001A0000001A0000001D000000B3
:105290001D0000001A00000017000000240000009C
:1052A0001D0000001D0000001D0000001C0000008B
:1052B0001C0000001800000018000000180000008A
:1052C0001800000018000000180000001500000081
:1052D0001500000021000000210000001F00000058
:1052E0001D0000001C0000001D0000001F00000049
:1052F0001F0000001F000000180000001800000040
:1053000018000000180000001C0000001D00000034
:105310001C000000180000001D0000001C00000020
:1053200018000000210000001F0000001F00000006
:105330001F0000001F0000001F0000001F000000F1
:105340001F0000001F0000001F00000024000000DC
:105350002400000013000000130000001D000000E6
:105360001C0000001A0000001C00000018000000D3
:1053700018000000180000001800000018000000CD
:1053800018000000180000001800000000000000D5
:10539000010000000000000001000000000000000B
:1053A00001000000010000000000000000000000FB
:1053B00000000000000000000000000000000000ED
:1053C00000000000000000000100000000000000DC
:1053D00000000000000000000100000000000000CC
:1053E00001000000010000000000000000000000BB
:1053F00000000000000000000000000000000000AD
:10540000000000000000000001000000000000009B
:10541000010000000000000001000000000000008A
:10542000010000000100000000000000000000007A
:10543000010000000000000001000000000000006A
:10544000010000000000000001000000000000005A
:10545000000000000100000001000000000000004A
:10546000000000000000000001000000000000003B
:10547000000000000100000001000000000000002A
:10548000000000000000000001000000000000001B
:10549000000000000000000001000000000000000B
:1054A00001000000010000000000000000000000FA
:1054B00000000000000000000000000000000000EC
:1054C00000000000000000000100000000000000DB
:1054D00000000000000000000100000000000000CB
:1054E00001000000010000000000000000000000BA
:1054F00000000000000000000000000000000000AC
:105500000000000000000000010000000100000099
:105510000100000001000000010000000100000087
:105520000100000001000000000000000000000079
:10553000000000000000000000000000000000006B
:105540000100000001000000010000000000000058
:105550000100000000000000010000000100000048
:105560000100000001000000000000000000000039
:10557000000000000000000000000000000000002B
:10558000000000000000000001000000000000001A
:105590000100000000000000010000000000000009
:1055A00001000000010000000000000001000000F8
:1055B00001000000000000000100000001000000E8
:1055C00001000000010000000000000000000000D9
:1055D00000000000000000000000000000000000CB
:1055E00000000000000000000100000000000000BA
:1055F00000000000000000000000000001000000AA
:105600000100000001000000010000000000000097
:105610000100000001000000010000000000000087
:105620000000000000000000010000000000000079
:105630000100000000000000000000000000000069
:105640000000000000000000010000000000000059
:105650000100000001000000010000000000000047
:105660000000000000000000010000000000000039
:105670000100000000000000000000000000000029
:105680000000000000000000010000000000000019
:105690000000000000000000010000000000000009
:1056A00001000000000000000100000000000000F8
:1056B00001000000010000000000000000000000E8
:1056C00001000000000000000100000001000000D7
:1056D00001000000010000000100000001000000C6
:1056E00001000000010000000000000000000000B8
:1056F00000000000000000000100000001000000A8
:105700000100000001000000010000000000000096
:105710000100000001000000010000000000000086
:105720000000000000000000010000000000000078
:105730000100000000000000000000000000000068
:105740000000000000000000010000000000000058
:105750000100000001000000010000000000000046
:105760000000000000000000010000000000000038
:105770000100000000000000000000000000000028
:105780000000000000000000010000000000000018
:105790000100000000000000010000000100000006
:1057A00001000000010000000100000000000000F6
:1057B00000000000010000000100000000000000E7
:1057C00000000000010000000100000001000000D6
:1057D00001000000010000000100000001000000C5
:1057E00001000000010000000000000000000000B7
:1057F00000000000000000000000000000000000A9
:105800000000000000000000010000000100000096
:105810000100000001000000010000000100000084
:105820000100000001000000010000000000000075
:105830000000000000000000000000000000000068
:105840000000000000000000010000003001000026
:1058500080841E00E0930400240000002400000067
:1058600024000000240000002400000024000000A8
:1058700014000000150000001700000010000000D8
:1058800012000000140000000F00000010000000D3
:10589000120000000B0000001700000015000000BF
:1058A00014000000150000001700000010000000A8
:1058B00012000000140000000F00000010000000A3
:1058C000120000000B00000017000000150000008F
:1058D000140000001600000017000000190000006E
:1058E0001B0000001C00000012000000140000005B
:1058F0001600000017000000190000001B00000047
:10590000190000001B00000017000000120000003A
:105910001700000016000000170000001200000031
:105920000F0000000B000000170000001500000031
:105930001400000015000000170000001000000017
:1059400012000000140000000F0000001000000012
:10595000120000000B0000001700000015000000FE
:1059600014000000150000001700000010000000E7
:1059700012000000140000000F00000010000000E2
:10598000120000000B0000001700000015000000CE
:1059900014000000160000001700000019000000AD
:1059A0001B0000001C00000012000000140000009A
:1059B0001600000017000000190000001B00000086
:1059C000190000001B00000017000000120000007A
:1059D0001700000016000000170000001200000071
:1059E0000F0000000B000000170000001500000071
:1059F0001400000015000000170000001000000057
:105A00001C0000001B000000190000001B0000002B
:105A10001C00000015000000170000001900000025
:105A20001400000015000000170000001000000026
:105A30001C0000001B000000190000001B000000FB
:105A40001C000000150000001700000019000000F5
:105A500017000000190000001B0000001C000000DF
:105A60001E000000200000001500000017000000CC
:105A700019000000170000001900000015000000C8
:105A800014000000150000001400000012000000C7
:105A900014000000100000000F00000012000000C1
:105AA000100000000F0000001000000012000000B5
:105AB0000B0000000D0000000F00000010000000AF
:105AC00012000000140000000D0000000F00000094
